:10000000ECC000000C9468090C94A2090C94DC0963
:100010000C94160A0C94500A0C948A0AFFC0000033
:10002000FDC00000FBC00000F9C00000F7C00000E8
:10003000F5C00000F3C00000F1C00000EFC00000F8
:10004000EDC000000C94A60BE9C00000E7C0000062
:10005000E5C00000E3C00000E1C00000DFC0000018
:10006000DDC000000C94F40B0C943B0CD7C00000D6
:10007000D5C00000D3C00000D1C00000CFC0000038
:10008000CDC00000CBC00000C9C00000C7C0000048
:10009000C5C00000C3C00000C1C00000BFC0000058
:1000A000BDC00000BBC00000B9C00000B7C0000068
:1000B000B5C00000B3C00000B1C00000AFC0000078
:1000C000ADC00000ABC00000A9C00000A7C0000088
:1000D000A5C00000A3C00000A1C000009FC0000098
:1000E0009DC0000037106D0D6D0D6D0D6D0D37103D
:1000F0006D0D6D0D6D0D6D0D6D0DED0F6D0D6D0DAE
:100100006D0D6D0D6D0D8B0F6D0D6D0D2E106D0D3B
:100110006D0D6D0D6D0D6D0D6D0D6D0D6D0D6D0D0F
:100120006D0D780F37106D0D540E6D0D6D0D371070
:100130006D0D6D0D6D0D6D0D6D0DED0F6D0D6D0D6D
:100140006D0D1E0E6D0D8B0F6D0D6D0D2E10921021
:10015000E80DE80DE80DE80D9210E80DE80DE80D4A
:10016000E80DE80DEC0FE80DE80DE80DE80DE80DE1
:100170008A0FE80DE80DAE10E80DE80DE80DE80D6A
:10018000E80DE80DE80DE80DE80DE80D780F921088
:10019000E80D540EE80DE80D9210E80DE80DE80D9D
:1001A000E80DE80DEC0FE80DE80DE80D1E0EE80D6A
:1001B0008A0FE80DE80DAE104546476566670020DA
:1001C0002B2D2E30313233343536373839680063D1
:1001D00064696E6F70737578580011241FBECFEF7D
:1001E000D1E2DEBFCDBF00E00CBF12E0A0E0B2E084
:1001F000EAE3FFE200E00BBF02C007900D92AC3DC6
:10020000B107D9F723E0ACEDB2E001C01D92AB3CE1
:10021000B207E1F70E9421110C949B17F1CEFFCF9A
:10022000DAD17BD040E862E172E082E693E0EAD284
:10023000FC01909357038093560391E09587909328
:100240007E03789487E092E061C3EF92FF920F9370
:100250001F93CF93DF93C0915803D091590380919E
:100260008400909185004C815D8120915E033091E6
:100270005F03BC01621B730B6417750778F108E517
:1002800013E0240F351F30935F0320935E03E88152
:10029000F98113830283F0935903E0935803EE80AE
:1002A000FF801F821E82E855F34059F188859985A9
:1002B000F7011995C0915803D0915903809184009A
:1002C000909185004C815D8120915E0330915F03A8
:1002D000BC01621B730B6417750798F6C855D340B1
:1002E000A9F0240F351F281B390B2230310558F097
:1002F000820F931FDF91CF911F910F91FF90EF908D
:1003000006C402D4D3CF22E030E0F2CFDF91CF9108
:100310001F910F91FF90EF900895EBE4F3E088E5D3
:1003200093E096878587908B87878FEF9FEF928BDF
:10033000818B148A138A0895EF92FF920F931F9373
:10034000CF93DF937C01DC0119963C932E93189791
:1003500017965C934E9316972091840030918500F8
:100360006230710508F459C0009158031091590387
:10037000B3E008351B0709F45AC080915E039091E1
:100380005F03281B390BEB01C20FD31FD801C21723
:10039000D307E0F114962D913C911597C217D3071E
:1003A00048F43EC0C21BD30BD8010D911C91F8013B
:1003B000248135812C173D07A8F3D7010D931C9399
:1003C000D8011296ED91FC911397D7011396FC93E7
:1003D000EE931297F182E082F801F382E2821596A1
:1003E000DC93CE931497848195818C1B9D0B958310
:1003F00084838FEF9FEF90935D0380935C03DF9185
:10040000CF911F910F91FF90EF90089514968D91C9
:100410009C911597C81BD90BC8CF62E070E0A4CFA0
:100420008C0F9D1F74D3F80124813581C3CF309385
:100430005F0320935E03F0925903E0925803F09219
:100440005B03E0925A03F701118300831383028355
:1004500075836483CB01820F931FDF91CF911F912E
:100460000F91FF90EF9047C3CF93DF93FC01A091D2
:100470005803B0915903A817B90709F1C281D38174
:100480008081918199838883A081B1811396DC93C7
:10049000CE9312971782168263E0A835B60761F0F3
:1004A00014962D913C91159784819581820F931F0D
:1004B00015969C938E931497DF91CF910895ED91AB
:1004C000FC911197F0935903E093580388E593E06A
:1004D0009383828317961C921E921697E817F9074A
:1004E00029F12481358114968D919C911597280FBF
:1004F000391F358324838091840090918500409139
:100500005E0350915F03BC01641B750B6217730798
:1005100098F6261B370B2230310528F0820F931FE7
:10052000DF91CF91F4C222E030E0F8CFDF91CF919C
:10053000EBC2CF93DF93DC011D968C911D97843025
:1005400099F170F5882349F1833031F45096ED919B
:10055000FC915197118210828FEF9FEF51969C93DF
:100560008E9350971D961C921D9714962C9114975C
:10057000EBE4F3E00190F081E02D94819217D0F745
:100580001196FC93EE93C281D3811396DC93CE93A4
:100590001297B983A883B383A283DF91CF91089583
:1005A000853089F08730C1F61296ED91FC91139752
:1005B0008D919C91119791838083CD91DC911197BE
:1005C000FB83EA83C9CF5096ED91FC9151978481CA
:1005D0008F5F8483E9CFEBE4F3E0F183E083F3837F
:1005E000E2831482F087E783F287E1870895CF934F
:1005F000DF93DC011D961C921D9714962C91149785
:10060000EBE4F3E00190F081E02D94819217D0F7B4
:100610001196FC93EE93C281D3811396DC93CE9313
:100620001297B983A883B383A283CD01DF91CF91C1
:100630000895CF93DF93EBE4F3E063857485DB01EA
:100640001D968C9380819181EC01A881B981B18341
:10065000A0831396FC93EE9312979487838721E0EF
:100660002D870CD2DF91CF9108951F93CF93DF9305
:10067000CDB7DEB72A970FB6F894DEBF0FBECDBF59
:10068000182F6F3F8FEF780711F1209156033091AB
:10069000570349E952E0CE0101964EDE812FC9DFB2
:1006A0008F819885892B19F0CE010196DDDEE091CE
:1006B0005603F0915703808991892A960FB6F894D2
:1006C000DEBF0FBECDBFDF91CF911F910895812F67
:1006D000B0DFEDCFCF93DF93DC01C0915603D09113
:1006E000570351967C936E93509714962C911497C0
:1006F0008C818217D8F01D961C921D97EBE4F3E0D5
:100700000190F081E02D94819217D0F71196FC931F
:10071000EE93C281D3811396DC93CE931297B98363
:10072000A883B383A283DF91CF9108951D86EBE464
:10073000F3E00190F081E02D94819817D0F7CD017E
:10074000F983E883A281B381BB83AA83CD93DC9331
:10075000D383C283909357038093560321E0FC0117
:100760002587BE018BD1DF91CF910895A0914B03D6
:10077000B0914C03E0915603F091570381E0149639
:100780002C919481921708F080E00895CF93DF9325
:10079000A0915603B091570340914B0350914C03E5
:1007A000EA01E881F981F0934C03E0934B038BE479
:1007B00093E093838283509357034093560381E0E1
:1007C0008D871D961C921D9714962C91149703C02B
:1007D0000190F081E02D94812917D0F31196FC93BC
:1007E000EE938281938113969C938E931297EC01E2
:1007F000B983A883B383A283BD01CA013FD1DF912E
:10080000CF910895CF93DF93FC01448382E08587E5
:100810001686438F128E118E108E81E08787748723
:100820006387ABE4B3E0B087A7831996CD91DC91E1
:100830001A97D287C187F887EF831A96FC93EE93B5
:100840001997CF014296938B828B0296958B848B5E
:10085000978B868BCF01DF91CF910895CF93DF9354
:10086000DC0114964D915C911597FA017C97EA0191
:10087000E297D683C58317962C9117972A8B1896E3
:100880002C911897298B19962C911997288B1A96C9
:100890002C911A972F871B8A2DE635E03C8B2D8BE8
:1008A00016962C9116978D919C91248332E0358772
:1008B0001686238F128E118E108E21E02787948743
:1008C0008387CBE4D3E0D087C78389859A859287D5
:1008D0008187DC011896FC93EE931797FA87E987D6
:1008E000EA012A97D983C883DA0118970B2E11964B
:1008F0000C921197AC930A2E1B2E13961C920E92FB
:1009000011241297CF01DF91CF910895CF93DF93F8
:10091000F894A4DFEC0160E070E0DCDE7894CE01B6
:10092000DF91CF9108950F931F93CF93DF93C091E1
:100930005603D0915703998B888B8E010E5E1F4F03
:100940008A899B890817190759F0FC012081318198
:100950003B8B2A8B4CDE8A899B8980179107A9F7EC
:100960008F8581110CC0E985FA858F8198859087E4
:100970008783AF81B8851A96FC93EE9319978FE021
:10098000DF91CF911F910F9154CEF894CCCFF89472
:10099000BC0188E06ADE78940895CF93DF936115F7
:1009A000710599F0E0915603F0915703918380838C
:1009B000EC01AA81BB81B383A283ED93FC93FB83FB
:1009C000EA8384E0DF91CF9150CE8FEF9FEFDF91EC
:1009D000CF910895CF93DF93FC0180819181E81737
:1009E000F90771F0EC01A881B981B183A083139656
:1009F000FC93EE931297798B688BDF91CF91F7CDB3
:100A0000DF91CF910895FC01908D692B608F8585D2
:100A10008A3059F08B3009F0089580896823861355
:100A2000FBCF118A108ACF01E2CD80896823C9F7F4
:100A30000895EF92FF921F93CF93DF937C01162FBF
:100A4000FC01C081D1818C179D0791F08D81812B94
:100A50008D83112319F09E81892321F06C818A8175
:100A60009B81D1DF0990D881C02DEC16FD0671F76E
:100A7000DF91CF911F91FF90EF9008952F923F92B9
:100A80004F925F926F927F928F929F92AF92BF929E
:100A9000CF92DF92EF92FF920F931F93CF93DF934A
:100AA000FB010DB605820EB60682FC0105800DBE67
:100AB00006800EBEDF91CF911F910F91FF90EF90B6
:100AC000DF90CF90BF90AF909F908F907F906F906E
:100AD0005F904F903F902F9008957894C201F1015C
:100AE000099553CFCFD28BE392E0D6D526D255D2FB
:100AF00037D700C05CC6909389008093880082E05D
:100B000086BB80936F00089510926F0008959093B4
:100B100089008093880008950F931F93FC019183AF
:100B2000808393838283158214827783668375879B
:100B3000648773876287640F751F71876087378743
:100B40002687118B008B1F910F910895FC01A285C0
:100B5000B38584859585A817B907E1F084819581CF
:100B6000019695838483CD010196938782876C9348
:100B700022853385808591852817390720F0868165
:100B8000978193878287CF0160E070E023DF80E068
:100B900090E0089584819581892B01F38FEF9FEF79
:100BA00008950F931F93CF93DF93EC018B01F8947B
:100BB00005C0B801CE01F1DE97FD27C08C819D8173
:100BC000892BB9F38C819D8101979D838C83EC8562
:100BD000FD85CF0101969D878C87108128853985F9
:100BE0008217930720F08E819F819D878C87EE85E9
:100BF000FF85309711F0CE0119957894812F90E000
:100C0000DF91CF911F910F9108957894DF91CF914B
:100C10001F910F9108952F923F924F925F926F9282
:100C20007F928F929F92AF92BF92CF92DF92EF927C
:100C3000FF920F931F93CF93DF93EC017B018A0107
:100C40003901AE84BF84F8942090840030908500F0
:100C5000220E331EC12CD12C290181E0481A5108E3
:100C60008C819D81892B81F18C819D8101979D8350
:100C70008C834701FFEF8F1A9F0AEC85FD85CF011A
:100C800001969D878C878081F70180832C853D8527
:100C9000888599852817390720F08E819F819D8747
:100CA0008C87A114B10419F0CE01F501199578943F
:100CB000FFEFCF1ADF0A01501109D9F0F89474013F
:100CC0008C819D81892B81F6EEEF4E16EFEF5E064B
:100CD00020F58091840090918500B101681B790B0B
:100CE0006616770628F0CE0158DE892B09F4B8CFB6
:100CF0007894C601DF91CF911F910F91FF90EF90F3
:100D0000DF90CF90BF90AF909F908F907F906F902B
:100D10005F904F903F902F900895B301CE013DDE3C
:100D2000E4CF0F931F93FC0191838083938382838D
:100D30005583448377836683758764877387628767
:100D4000460F571F5187408737872687118B008BA7
:100D50001F910F910895FF920F931F93CF93DF93ED
:100D6000EC01F62E8A01F89405C0B801CE0115DE1B
:100D700097FD2AC08C819D81892BB9F38C819D813F
:100D800001979D838C83EA85FB85CF0101969B8724
:100D90008A87F0822A853B858885998528173907B7
:100DA00020F08E819F819B878A87EE85FF85309713
:100DB00011F0CE011995789480E090E0DF91CF9109
:100DC0001F910F91FF9008957894DF91CF911F911B
:100DD0000F91FF900895CF93FC01A485B58582857E
:100DE00093858A179B07E1F084819581019695830D
:100DF0008483CD01019695878487CC9120853185A8
:100E00008217930740F4CF0160E070E0E3DD8C2FA0
:100E100090E0CF9108958681978195878487F3CF5D
:100E200084819581892B01F38FEF9FEFF2CF2F9271
:100E30003F924F925F926F927F928F929F92AF926A
:100E4000BF92CF92DF92EF92FF920F931F93CF93B7
:100E5000DF93EC017B018A013901AE84BF84F894F1
:100E60002090840030908500220E331EC12CD12C9E
:100E7000290181E0481A51088C819D81892B81F1DB
:100E80008C819D8101979D838C83EA85FB85CF01B1
:100E900001969B878A874701BFEF8B1A9B0AD70170
:100EA0008C9180832A853B85888599852817390709
:100EB00020F08E819F819B878A87A114B10419F04D
:100EC000CE01F50119957894FFEFCF1ADF0A015092
:100ED0001109D9F0F89474018C819D81892B81F6D8
:100EE000AEEF4A16AFEF5A0620F58091840090913C
:100EF0008500B101681B790B6616770628F0CE01D4
:100F00004CDD892B09F4B8CF7894C601DF91CF91DD
:100F10001F910F91FF90EF90DF90CF90BF90AF9017
:100F20009F908F907F906F905F904F903F902F9009
:100F30000895B301CE0131DDE4CF92C321E0FC017D
:100F40002083128211820895CF93DF93EC01F894ED
:100F50007A83698388D382E088837894DF91CF9104
:100F60000895F89411D378940895059654CE2FEFF0
:100F70003FEF059650CE47965ACF2FEF3FEF47965B
:100F800056CF05960ECE6FEF7FEF05960ACE4796A9
:100F9000E2CE4FEF5FEF4796DECEAAC4EF92FF920C
:100FA0000F931F93CF93DF93EC019B017A01FC0118
:100FB00088E292E081939193FB83EA8381E08C83C2
:100FC000BE01675D7F4F8E0140E150E0CE01059686
:100FD000A3DDBE01675C7F4F970140E150E0CE0189
:100FE00047969FDEDF91CF911F910F91FF90EF9079
:100FF0000895CF93DF93EC01F89481D482E08C8341
:101000007894DF91CF9108951F93CF93DF93EC01F4
:10101000162F89859A85892B51F0612FCE0105966F
:1010200095DD97FD0EC0DF91CF911F91089564E08B
:10103000CE010296FEDC612FCE01059687DD97FF7B
:10104000F2CF60E0CE010296DF91CF911F91F1CCFB
:101050000F931F93CF93DF938C014796BCDEEC0177
:1010600097FD06C0CE01DF91CF911F910F9108959A
:1010700068E0C8010296DDDCCE01DF91CF911F91BF
:101080000F9108950895009751F5209169006130FE
:1010900009F452C0623009F474C0633009F455C0D9
:1010A0002E7F20936900209169002D7F2093690095
:1010B000059709F065C080916A00613009F47CC031
:1010C000623009F482C0633009F488C08B7F80935A
:1010D0006A0080916A00877F80936A00089581305A
:1010E000910599F420916900613009F453C0623090
:1010F000A9F1633009F47BC02B7F20936900209114
:101100006900277F20936900D3CF8230910509F0D1
:1011100080C080916900613009F445C0623039F1C6
:10112000633009F46DC08F7E8093690080916900FF
:101130008F7D80936900089521602093690020913C
:101140006900226020936900B3CF21602093690079
:10115000209169002D7F20936900AACF2B7F2093D7
:10116000690020916900286020936900A1CF8F7EDB
:10117000809369008091690080628093690008957E
:1011800008952E7F209369002091690022602093AA
:1011900069008ECF24602093690020916900286047
:1011A0002093690085CF80618093690080916900F8
:1011B0008062809369000895846080936A008091C2
:1011C0006A00886080936A0008958B7F80936A002C
:1011D00080916A00886080936A000895846080939B
:1011E0006A0080916A00877F80936A000895246076
:1011F0002093690020916900277F2093690058CFD0
:10120000806180936900809169008F7D809369007F
:1012100008958330910561F580916900613069F02E
:101220006230A1F06330D9F08F7B809369008091A8
:1012300069008F77809369000895806480936900C6
:101240008091690080688093690008958F7B809306
:1012500069008091690080688093690008958064C6
:1012600080936900809169008F7780936900089569
:101270008430910509F01CCF80916A00613069F0DB
:101280006230A1F06330D9F08E7F80936A00809144
:101290006A008D7F80936A000895816080936A0060
:1012A00080916A00826080936A0008958E7F8093A7
:1012B0006A0080916A00826080936A00089581606C
:1012C00080936A0080916A008D7F80936A00089500
:1012D0001F920F920FB60F9211240BB60F922F93FD
:1012E0003F934F935F936F937F938F939F93AF93AE
:1012F000BF93EF93FF9381E080937E03E09180039F
:10130000F09181030480F581E02D60E070E08FE7CB
:1013100093E0199510927E0329DA811137DAFF9153
:10132000EF91BF91AF919F918F917F916F915F915D
:101330004F913F912F910F900BBE0F900FBE0F90CA
:101340001F9018951F920F920FB60F9211240BB693
:101350000F922F933F934F935F936F937F938F934E
:101360009F93AF93BF93EF93FF9381E080937E03AE
:10137000E0918003F09181030284F385E02D61E028
:1013800070E08FE793E0199510927E03EFD98111F9
:10139000FDD9FF91EF91BF91AF919F918F917F9177
:1013A0006F915F914F913F912F910F900BBE0F90D6
:1013B0000FBE0F901F9018951F920F920FB60F92AD
:1013C00011240BB60F922F933F934F935F936F931C
:1013D0007F938F939F93AF93BF93EF93FF9381E09E
:1013E00080937E03E0918003F09181030088F1896E
:1013F000E02D62E070E08FE793E0199510927E0394
:10140000B5D98111C3D9FF91EF91BF91AF919F9150
:101410008F917F916F915F914F913F912F910F909D
:101420000BBE0F900FBE0F901F9018951F920F923A
:101430000FB60F9211240BB60F922F933F934F9339
:101440005F936F937F938F939F93AF93BF93EF932C
:10145000FF9381E080937E03E0918003F09181030C
:101460000688F789E02D63E070E08FE793E0199537
:1014700010927E037BD9811189D9FF91EF91BF91A1
:10148000AF919F918F917F916F915F914F913F911C
:101490002F910F900BBE0F900FBE0F901F901895BD
:1014A0001F920F920FB60F9211240BB60F922F932B
:1014B0003F934F935F936F937F938F939F93AF93DC
:1014C000BF93EF93FF9381E080937E03E0918003CD
:1014D000F0918103048CF58DE02D64E070E08FE7DE
:1014E00093E0199510927E0341D981114FD9FF9154
:1014F000EF91BF91AF919F918F917F916F915F918C
:101500004F913F912F910F900BBE0F900FBE0F90F8
:101510001F9018951F920F920FB60F9211240BB6C1
:101520000F922F933F934F935F936F937F938F937C
:101530009F93AF93BF93EF93FF9381E080937E03DC
:10154000E0918003F091810302A0F3A1E02D65E01A
:1015500070E08FE793E0199510927E0307D981110F
:1015600015D9FF91EF91BF91AF919F918F917F918D
:101570006F915F914F913F912F910F900BBE0F9004
:101580000FBE0F901F9018950F931F93CF93DF936B
:101590008C01EB012097A9F06130710509F455C069
:1015A00062307105B1F16330710509F440C06430F7
:1015B000710509F1259789F0DF91CF911F910F9166
:1015C0000895E89ADC011196ED91FC9112976081E3
:1015D00080E090E058DD259779F7ED9AD8011196D3
:1015E000ED91FC911297668D85E090E0DF91CF91AF
:1015F0001F910F9148CDEC9ADC011196ED91FC9171
:101600001297608D84E090E0DF91CF911F910F9150
:101610003ACDEA9ADC011196ED91FC91129764851E
:1016200082E090E0DF91CF911F910F912CCDEB9A4A
:10163000DC011196ED91FC911297628983E090E0B4
:10164000DF91CF911F910F911ECDE99ADC01119688
:10165000ED91FC911297668181E090E014DDAACFB4
:101660008FE793E06BCC0F931F93CF93DF938C01A5
:10167000FC018081813071F0C0E0D0E0BE01C80182
:1016800083DF2196C630D105C9F7DF91CF911F9135
:101690000F9108957894F0CFFC01808182B9818107
:1016A00081B9828185B9838184B9848188B9858132
:1016B00087B986818BB987818AB980858EB9818502
:1016C0008DB9828581BB838580BB848584BB8585FC
:1016D00083BB868580930201878580930101808981
:1016E0008093050181898093040182898093080198
:1016F000838980930701848980930B018589809376
:101700000A010895FC014230C9F098F04530B1F06B
:10171000463021F48181682B618308954330E9F7D5
:101720008181962F9095892381838281682B6283A2
:101730000895442319F0413099F30895818160950B
:101740008623818382816823628308951F920F928A
:101750000FB60F9211240BB60F922F933F934F9316
:101760005F936F937F938F939F93AF93BF93EF9309
:10177000FF9381E080937E030E94250110927E03F7
:101780000E94B603811102D8FF91EF91BF91AF91F2
:101790009F918F917F916F915F914F913F912F9189
:1017A0000F900BBE0F900FBE0F901F9018951092C8
:1017B0008000E1E8F0E088E08083109282001092DF
:1017C000890010928800109285001092840082E0B7
:1017D00086BB10926F0085E080830895E1ECF0E015
:1017E00080818062808308951F920F920FB60F92BE
:1017F00011240BB60F922F933F934F935F936F93E8
:101800007F938F939F93AF93BF93EF93FF9381E069
:1018100080937E038091C000982F9C71F9F46091B1
:10182000C60082E893E0F0DB10927E030E94B603CC
:1018300081110E94C603FF91EF91BF91AF919F91DB
:101840008F917F916F915F914F913F912F910F9069
:101850000BBE0F900FBE0F901F90189583FD09C00F
:1018600060E082FD606284FD606484E893E0E1D81A
:10187000D6CF60E8F6CF1F920F920FB60F921124C9
:101880000BB60F922F933F934F935F936F937F937A
:101890008F939F93AF93BF93EF93FF9381E08093D8
:1018A0007E0382E893E0D4DB97FD1CC08093C600E2
:1018B00010927E030E94B60381110E94C603FF911D
:1018C000EF91BF91AF919F918F917F916F915F91B8
:1018D0004F913F912F910F900BBE0F900FBE0F9025
:1018E0001F9018958091C1008F7D8093C100E0CF3B
:1018F0004EEE5BE060E070E082E893E04FCB611574
:10190000710519F18258934009F00895FB01808117
:101910008093C40081818F708093C50082E08093A2
:10192000C00088E98093C10082818130B9F0A0F0C5
:10193000823071F0843071F48091C10084608093B2
:10194000C10086E08093C200089568E372E0DACFB8
:1019500084E0F8CF86E0F6CF80E0F4CF82E0F2CFEB
:101960001092690010926A001DBA08952F923F925A
:101970004F925F926F927F928F929F92AF92BF929F
:10198000CF92DF92EF92FF920F931F93CF93DF934B
:10199000CDB7DEB7C754D1090FB6F894DEBF0FBE7E
:1019A000CDBF1C016B015DA34CA31BA21AA29E011B
:1019B0002E5F3F4F398F288FCE0101969B8F8A8FE4
:1019C000281B390B39AB28AB215031093DAB2CAB6F
:1019D000DE011C96BD8FAC8F86010F5F1F4FF60195
:1019E00060816623B9F0653289F1D101ED91FC91F6
:1019F0000480F581E02DC1011995EAA1FBA1319682
:101A0000FBA3EAA3680186010F5F1F4FF601608107
:101A10006111E9CF8AA19BA1C95BDF4F0FB6F89492
:101A2000DEBF0FBECDBFDF91CF911F910F91FF9011
:101A3000EF90DF90CF90BF90AF909F908F907F906E
:101A40006F905F904F903F902F90089591819D32BD
:101A500009F4E7C019A6903309F4DCC020E228A7F6
:101A6000A8014F5F5F4FE12CF12CECA1FDA113C049
:101A7000808132969701220F331FEE0CFF1CEE0C73
:101A8000FF1CEE0CFF1CE20EF31EE80EF11C4F5F74
:101A90005F4FD6019C916A0180ED890F8A3050F327
:101AA0009A3231F3FDA3ECA300E010E09E3209F47A
:101AB00091C0892F8F7D8C3409F479C03FEB390FA9
:101AC00021E03A3108F020E0492F50E0FA01E454D7
:101AD000F109E533F10508F4ABC09983E8A9F9A948
:101AE0008CA89DA8CE0101965C0187010E1B1F0BDF
:101AF00017FDD7C099A5911157C0EE24FF24E01A15
:101B0000F10A09F480C2D5018C918D3209F486C2A4
:101B100078A4D101ED91FC910480F581E02D672D31
:101B2000C1011995BFEFEB1AFB0A99F72AA13BA156
:101B3000200F311F3BA32AA397FC4ECF00E010E0FB
:101B40007401F50161915F01D101ED91FC91048077
:101B5000F581E02DC1011995B1E0EB1AF10888F784
:101B60008AA19BA1019697FC56C29401280F391FA8
:101B70003BA32AA30115110509F42ECF7801B8A4BF
:101B8000D101ED91FC910480F581E02D6B2DC10117
:101B90001995B1E0EB1AF10899F7EAA1FBA1E00F62
:101BA000F11FFBA3EAA318CF97FECACFE3CFD6015C
:101BB0002C91222309F491CFFFEFCF1ADF0A822F55
:101BC00090E0FC01E454F109E533F10508F41EC28C
:101BD000922F83CFDF010FC08C9112969801220FB4
:101BE000331F000F111F000F111F000F111F020FD5
:101BF000131F080F111DEFEFCE1ADE0AF601319701
:101C0000908180ED890F8A3048F39A3229F3BDA381
:101C1000ACA34FCFF80191810F5F1F4FF0E3F8A7FE
:101C20001FCF86010E5F1F4F9281B1E0B9A713CF7E
:101C30008827EE58FF4F8F4F0C948C168CA19DA1D6
:101C40000296ACA1BDA1AD90BC90A114B10409F461
:101C5000C3C2F50120810115110509F4F9C1222340
:101C600009F4BFC201501109F501319605C00150B8
:101C7000110908F496C2FA01AF014F5F5F4F20814E
:101C80002111F5CFEA19FB094F0121E0821A9108D1
:101C90009DA38CA330E238A787010E1B1F0B17FFF3
:101CA00029CF00E010E026CFECA1FDA13496FDAFD6
:101CB000ECAFACA1BDA18D919D910D90BC91A02DDB
:101CC0008CA39DA3AEA3BFA320E030E0A901BC017B
:101CD000CD019AD687FD70C2FE013196FFA7EEA70F
:101CE000012E000C220B330B01501109210931097F
:101CF000093011052105310508F039C2000F111F07
:101D0000000F111FF801E85AFD4F80809180A280DA
:101D1000B380C501B401ADD628966CAF7DAF8EAF50
:101D20009FAF2897C501B4012AE030E040E050E0C1
:101D3000B5D728AF39AF4AAF5BAF29013A016CA1E3
:101D40007DA18EA19FA164D66AA77CA78AAB9BAB1D
:101D5000AEA5BFA51B96BFABAEAB4B015C01850129
:101D6000BF8FAE8FFFAEEEAE22963FAE2EAE229765
:101D70002496DFAECEAE2497FA2C092DD12E162F45
:101D8000612F702F8F2D9D2D2AE030E040E050E034
:101D9000A7D7605D7F4F362EEE8DFF8D6293FF8F4C
:101DA000EE8F122F032FF42ED52EC501B4012AE099
:101DB00030E040E050E094D749015A01232B242B16
:101DC000252BF1F6EEACFFAC832D22962EAC3FAC6A
:101DD00022972496CEACDFAC2497EEA5FFA5AE8D5E
:101DE000BF8D11960EA91FA92E8D3F8D021B130BBF
:101DF0000E0F1F1F01C08D918193E017F107D9F7D6
:101E0000C80101969FA78EA78EE2D8018C936AA580
:101E10007CA58AA99BA92FD69B01AC016CA17DA1B1
:101E20008EA19FA18CD528962CAD3DAD4EAD5FAD5A
:101E30002897D1D6EDD5862EB82EA92E88AD99AD8E
:101E4000AAADBBAD892B8A2B8B2B21F4482C572EA6
:101E50006B2C7A2CD8011C96BF8FAE8F8D01FDA202
:101E6000ECA2972EFA2CB4018B2D9F2D2AE030E0A6
:101E700040E050E035D7605D7F4FA62EF8016293B9
:101E80008F014901B42EF52EC301B2012AE030E0E2
:101E900040E050E025D729013A01232B242B252BA4
:101EA00011F7ECA0FDA09A2CEEA5FFA5D801119684
:101EB0008E8D9F8D801B910B2E8D3F8D01C09D902F
:101EC0009192A217B307D9F7EEA5FFA5E80FF91F66
:101ED0002A8D3B8DE21BF30B4F0131E0831A9108F1
:101EE0008CAD9DAD9DA38CA3DE0111965D01FDCD52
:101EF000ACA1BDA18C918983E8A9F9A98CA89DA862
:101F00001296BDA3ACA3B0E2B8A79E012F5F3F4FCE
:101F10005901EBCD21E08AE090E0A0E0B0E08E8FA7
:101F20009F8FA8A3B9A3211163C0ECA1FDA180805C
:101F30009180A12CB12C3296FDA3ECA32401350194
:101F4000FE013C96FBA6EAA68F01C501B4012E8DC9
:101F50003F8D48A159A1C4D69B01205D3F4F2A3334
:101F6000310514F0295F3F4FF22ED8012E938D01D9
:101F7000C501B4012E8D3F8D48A159A1B1D64901AB
:101F80005A01C301B2012E8D3F8D48A159A1A8D697
:101F900029013A01232B242B252BB9F6F8011F2DFB
:101FA000EAA4FBA44C8C5D8C4E1A5F0ADE011196EC
:101FB0003196CD01840D951D01C011911D93A81777
:101FC000B907D9F74201B1E08B1A9108F2019E01DD
:101FD0002F5F3F4F590189CD21E088E090E0A0E0DC
:101FE000B0E08E8F9F8FA8A3B9A3222309F49DCFC1
:101FF000ACA1BDA18D909D90AD90BC90139714960F
:10200000BDA3ACA39BCF97FE99CDE6CC8827E9551D
:10201000FF4F8F4F81C6812C912CA7CDB8A5B0332F
:1020200009F076CDEFEFAE1ABE0AD101ED91FC9129
:102030000480F581E02D6DE2C1011995EAA1FBA1B3
:102040003196FBA3EAA3F1E08F1A910878A461CD41
:10205000222309F4C6C00EEF1FE706CE80E190E010
:10206000A0E0B0E08E8F9F8FA8A3B9A35CCF3A31D8
:1020700008F458C0ECA1FDA180809180092C000CCF
:10208000AA08BB083296FDA3ECA3B7FC57C0CE014B
:1020900001969F8F8E8FAE8DBF8D1B96BBA7AAA773
:1020A00024013501FDA6ECA68D01C501B4012AE08D
:1020B00030E040E050E014D6605D7F4FF62EF8012E
:1020C00062938F0149015A01C301B2012AE030E055
:1020D00040E050E005D629013A01232B242B252B83
:1020E00021F7C8011F2DECA4FDA4EE8DFF8DDC01AE
:1020F00011962AA53BA5281B390BC9018E0F9F1FDE
:1021000001C01D911193E817F907D9F78A8D9B8DAE
:10211000E81BF90B4F0191E0891A9108DE01119635
:102120005D01E3CCACA1BDA18D909D90AD90BC9024
:1021300013971496BDA3ACA3B7FEA9CF8DE28983F4
:10214000B094A09490948094811C911CA11CB11C0B
:102150009E012E5F3F4F3F8F2E8F9DCF80E190E0FD
:10216000A0E0B0E08E8F9F8FA8A3B9A341CF412CF0
:1021700091EE592E95EF692E95E0792E80E091EE43
:10218000A5EFB5E088AF99AFAAAFBBAF88E29BE6F9
:10219000AEE6BEE428968CAF9DAFAEAFBFAF28973A
:1021A000CECDEA19FB094F01B1E08B1A91089DA32E
:1021B0008CA320E228A799CC8DE289838CA19DA1D4
:1021C000AEA1BFA1B0588CA39DA3AEA3BFA3DE0157
:1021D0001296BFA7AEA784CD31E5A32E32E0B32E71
:1021E00038CD8701F7FC0EC039A59DA38CA3311112
:1021F00006C088248A94982C80E288A77ECC30E29E
:1022000038A7B8CC00E010E0EFCFCF93DF93CDB785
:10221000DEB7AE01465F5F4F688579858E819F810D
:10222000A5DBDF91CF91089585B1805885B9809164
:10223000DE029091DF0201969093DF028093DE022E
:1022400008950E9472050E94100142E061E08CE254
:1022500090E058DA42E062E08CE290E053DA42E04B
:1022600064E08CE290E04EDA42E068E08CE290E0DC
:1022700049DA42E060E18CE290E044DA42E060E278
:102280008CE290E03FDA60E070E082E893E00E9448
:10229000F90767EB72E08FE793E00E94A40764E020
:1022A00070E08FE793E00E94B1072F988CE792E0EF
:1022B0009F938F93809101028F93809100028F935F
:1022C000A4DF0F900F900F900F90C7E9D2E088E045
:1022D0009DE30E94C7048091DF028F938091DE020C
:1022E0008F938091DD028F938091DC028F93DF9337
:1022F000CF93809101028F93809100028F9385DFAD
:102300008091DC029091DD0201969093DD02809332
:10231000DC028DB79EB708960FB6F8949EBF0FBE2D
:102320008DBFD5CF6F927F928F929F92AF92BF92C7
:10233000CF92DF92EF92FF920F931F93CF93DF9391
:10234000CDB7DEB72B970FB6F894DEBF0FBECDBF6B
:102350006C017B013A01FC0117821682838181FFA7
:10236000F9C0CE0101964C01F601B380F701B3FC30
:102370000591B3FE01917F01002309F4E7C0053206
:1023800049F4B3FC0591B3FE01917F01053211F0D0
:1023900010E017C0B601802F90E017D5530135012A
:1023A000E3CF002309F4D2C0602F70E08FEB91E0FF
:1023B000C3D4892B49F0F701B3FC0591B3FE019119
:1023C0007F0117FFEECF04C0033239F00C3619F04D
:1023D000011105C0BBC01068EECF10E1ECCF602F3B
:1023E00070E088EB91E0A8D4892B41F05301F4E030
:1023F000AF0EB11CB6018FE390E010C0033631F090
:10240000033771F0033501F511600AC0530182E012
:10241000A80EB11CB601F30180819181D6D4BFCF43
:102420005301F2E0AF0EB11CF30160807180F30143
:1024300010FD859110FF81913F01882309F4AFCFF2
:10244000B60190E0C2D4F3CF043611F0093621F57D
:10245000530117FF09C0F4E0AF0EB11CF301608116
:102460007181828193810AC0F2E0AF0EB11CF30149
:1024700060817181072E000C880B990B1F7E97FFDE
:1024800008C090958095709561957F4F8F4F9F4FB5
:1024900010642AE030E030C0003791F040F4083595
:1024A000A1F00F3609F052C028E030E011C0053726
:1024B00019F0083731F04AC01F7E2AE030E008C02A
:1024C0001061146220E130E003C0146020E132E0CA
:1024D000530117FF09C0F4E0AF0EB11CF301608196
:1024E00071818281938108C0F2E0AF0EB11CF301CB
:1024F0006081718180E090E0A401BCD4082F0819AC
:1025000016FF04C0B6018DE290E05FD414FF13C043
:10251000FE01E00FF11D8081803369F0B60180E398
:1025200090E053D412FF07C01072812F90E0B601E3
:10253000885A9F4F4AD40150F401E00FF11D808169
:10254000B60190E042D40111F6CF29CFF601868181
:10255000978102C08FEF9FEF2B960FB6F894DEBFE6
:102560000FBECDBFDF91CF911F910F91FF90EF90E4
:10257000DF90CF90BF90AF909F908F907F906F90A3
:10258000089520FD09C0FC0123FD05C022FF02C003
:102590007383628351834083089544FD17C046FDD1
:1025A00017C0AB01BC01DA01FB01AA0FBB1FEE1F74
:1025B000FF1F1094D1F74A0F5B1F6E1F7F1FCB01C7
:1025C000BA01660F771F881F991F09C033E001C049
:1025D00034E0660F771F881F991F3150D1F7620FC3
:1025E000711D811D911D08950F931F93CF93DF934C
:1025F0008C01C801ACD3EC0197FD06C095D3892BA3
:10260000C1F7B801CE011DD4CE01DF91CF911F914A
:102610000F9108958F929F92AF92BF92EF92FF9287
:102620000F931F93CF93DF938C01D62F7A01B22E95
:102630008ED39C0133272B32310531F02D323105F9
:1026400059F48B2D8068B82ED15011F480E061C010
:10265000C8017DD397FDFACFCB2DCD7F2B2D2073D5
:10266000F9F48033E9F4AA24AA94AD0E09F43EC02B
:10267000C8016DD397FD3AC09C012F7D33272835C3
:10268000310541F4C264D25089F1C80160D397FF8B
:1026900007C02CC0B6FE02C0C26001C0C261DA2D04
:1026A000812C912C540120ED280F283078F0C4FFA4
:1026B00003C0B801C6D317C02A3040F0C6FFF9CF17
:1026C0002F7D3FEE320F3630A0F727504C2FC5013B
:1026D000B40163DF4B015C01C260D15051F0C8010D
:1026E00036D397FFE0CFC1FD04C0B0CF812C912C31
:1026F0005401C7FF08C0B094A09490948094811CAA
:10270000911CA11CB11C2C2FB501A401C70139DFFC
:1027100081E0DF91CF911F910F91FF90EF90BF90DB
:10272000AF909F908F9008955F926F927F928F925B
:102730009F92AF92BF92CF92DF92EF92FF920F9350
:102740001F93CF93DF936C01EB015A01FC011782B9
:102750001682512CF601F380FE01F3FC8591F3FE05
:102760008191182FEF01882309F4D4C090E0DCD2C6
:10277000892B19F0C60138DFEDCF153241F4FE0187
:10278000F3FC1591F3FE1191EF01153271F4C601BE
:10279000DED297FDBDC0412F50E09C0133272417A6
:1027A0003507C1F2B6014DD3B5C01A3239F4F3FC86
:1027B0001591F3FE1191EF0101E001C000E0E12C61
:1027C00020ED210F2A3078F402606E2D70E080E059
:1027D00090E040E2E2DEE62EFE01F3FC1591F3FE0E
:1027E0001191EF01EDCF01FF03C0E11003C092C0D2
:1027F000EE24EA94183619F01C3651F010C0FE0190
:10280000F3FC1591F3FE1191EF01183641F40860C5
:102810000460FE01F3FC1591F3FE1191EF01112309
:1028200009F478C0612F70E08FEC91E085D2892B9C
:1028300009F470C000FD07C0F50180809180C501DA
:1028400002965C0102C0812C912C1E3649F4F601DF
:102850004681578160E070E0202FC40192DE7ACF7C
:102860001336A1F401FD02C0EE24E394C6016FD239
:1028700097FD4EC08114910429F0F4018083C401B6
:1028800001964C01EA94E110F1CF3EC0C601ACDEE6
:1028900097FD3EC01F3649F128F4143621F1193650
:1028A00039F125C0133771F01537E9F020C08114D4
:1028B000910429F0F4016082C40101964C01EA946C
:1028C000EE2059F0C60143D23C0197FD06C02CD240
:1028D000892B69F3B601C301B4D281149104A1F02C
:1028E000F401108211C0006203C0006101C00064E5
:1028F000202FA4016E2DC6018DDE811105C0F601C9
:102900008381807329F406C000FD24CF539422CF25
:10291000552019F0852D90E002C08FEF9FEFDF91D9
:10292000CF911F910F91FF90EF90DF90CF90BF90CC
:10293000AF909F908F907F906F905F9008955058C8
:10294000BB27AA270ED00DC1FED030F003D120F056
:1029500031F49F3F11F41EF4F3C00EF4E095E7FB51
:10296000E9C0E92F0FD180F3BA1762077307840714
:10297000950718F071F49EF527C10EF4E0950B2E23
:10298000BA2FA02D0B01B90190010C01CA01A001C1
:102990001124FF27591B99F0593F50F4503E68F11C
:1029A0001A16F040A22F232F342F4427585FF3CF5D
:1029B000469537952795A795F0405395C9F77EF42E
:1029C0001F16BA0B620B730B840BBAF09150A1F077
:1029D000FF0FBB1F661F771F881FC2F70EC0BA0FFD
:1029E000621F731F841F48F4879577956795B79585
:1029F000F7959E3F08F0B3CF9395880F08F099277D
:102A0000EE0F97958795089571D008F481E00895A9
:102A100004D06894B111D9C00895BCD088F09F57F4
:102A200090F0B92F9927B751A0F0D1F0660F771F1A
:102A3000881F991F1AF0BA95C9F712C0B13081F0FA
:102A4000C3D0B1E00895C0C0672F782F8827B85F42
:102A500039F0B93FCCF3869577956795B395D9F75B
:102A60003EF490958095709561957F4F8F4F9F4F65
:102A70000895E89409C097FB3EF490958095709571
:102A800061957F4F8F4F9F4F9923A9F0F92F96E9BA
:102A9000BB279395F695879577956795B795F1112F
:102AA000F8CFFAF4BB0F11F460FF1BC06F5F7F4FCC
:102AB0008F4F9F4F16C0882311F096E911C07723DE
:102AC00021F09EE8872F762F05C0662371F096E8E7
:102AD000862F70E060E02AF09A95660F771F881FB6
:102AE000DAF7880F9695879597F90895990F00085A
:102AF000550FAA0BE0E8FEEF16161706E807F907D0
:102B0000C0F012161306E407F50798F0621B730B6A
:102B1000840B950B39F40A2661F0232B242B252BEB
:102B200021F408950A2609F4A140A6958FEF811D8E
:102B3000811D089597F99F6780E870E060E008952F
:102B40009FEF80EC089500240A94161617061806C5
:102B50000906089500240A941216130614060506A1
:102B60000895092E0394000C11F4882352F0BB0F32
:102B700040F4BF2B11F460FF04C06F5F7F4F8F4F95
:102B80009F4F089557FD9058440F551F59F05F3FD0
:102B900071F04795880F97FB991F61F09F3F79F07F
:102BA00087950895121613061406551FF2CF469501
:102BB000F1DF08C0161617061806991FF1CF869583
:102BC0007105610508940895E894BB276627772767
:102BD000CB0197F908950BD0C4CFB5DF28F0BADF49
:102BE00018F0952309F0A6CFABCF1124EECFCADFA2
:102BF000A0F3959FD1F3950F50E0551F629FF00110
:102C0000729FBB27F00DB11D639FAA27F00DB11D68
:102C1000AA1F649F6627B00DA11D661F829F2227F1
:102C2000B00DA11D621F739FB00DA11D621F839F78
:102C3000A00D611D221F749F3327A00D611D231F4E
:102C4000849F600D211D822F762F6A2F11249F579C
:102C500050408AF0E1F088234AF0EE0FFF1FBB1FBF
:102C6000661F771F881F91505040A9F79E3F51055E
:102C700070F060CFAACF5F3FECF3983EDCF386950F
:102C800077956795B795F795E7959F5FC1F7FE2B09
:102C9000880F911D9695879597F90895A1E21A2EB0
:102CA000AA1BBB1BFD010DC0AA1FBB1FEE1FFF1FF0
:102CB000A217B307E407F50720F0A21BB30BE40B40
:102CC000F50B661F771F881F991F1A9469F7609587
:102CD0007095809590959B01AC01BD01CF01089541
:102CE000052E97FB16F400940FD057FD05D0D6DFC4
:102CF00007FC02D046F408C05095409530952195C8
:102D00003F4F4F4F5F4F0895909580957095619517
:102D10007F4F8F4F9F4F0895EE0FFF1F881F8BBF70
:102D20000790F691E02D1994911102C1803219F0AB
:102D300089508550D0F70895FC010590061621F0C2
:102D40000020D9F7C00108953197CF010895CF939E
:102D5000DF93EC012B8120FF33C026FF0AC02F7BBD
:102D60002B838E819F8101969F838E838A8190E041
:102D700029C022FF0FC0E881F9818081082E000C54
:102D8000990B009719F420622B831AC03196F983AE
:102D9000E8830EC0EA85FB85199597FF09C02B8152
:102DA000019611F080E201C080E1822B8B8308C084
:102DB0002E813F812F5F3F4F3F832E83992702C093
:102DC0008FEF9FEFDF91CF9108950F931F93CF93D4
:102DD000DF93FB01238121FD03C08FEF9FEF2CC008
:102DE00022FF16C04681578124813581421753073F
:102DF00044F4A081B1819D012F5F3F4F3183208337
:102E00008C93268137812F5F3F4F3783268314C0F1
:102E10008B01EC01FB010084F185E02D1995892BD4
:102E2000E1F6D80116968D919C9117970196179609
:102E30009C938E931697CE01DF91CF911F910F91A6
:102E40000895FB01238120FF12C026FD10C08F3F93
:102E50003FEF930761F082832F7D206423832681D7
:102E600037812150310937832683992708958FEFC1
:102E70009FEF0895FA01AA27283051F1203181F1FE
:102E8000E8946F936E7F6E5F7F4F8F4F9F4FAF4F72
:102E9000B1E03ED0B4E03CD0670F781F891F9A1F85
:102EA000A11D680F791F8A1F911DA11D6A0F711D39
:102EB000811D911DA11D20D009F468943F912AE045
:102EC000269F11243019305D3193DEF6CF0108952D
:102ED000462F4770405D4193B3E00FD0C9F7F6CF5E
:102EE000462F4F70405D4A3318F0495D31FD405226
:102EF000419302D0A9F7EACFB4E0A69597958795BC
:102F000077956795BA95C9F700976105710508959A
:102F10009B01AC010A2E0694579547953795279546
:102F2000BA95C9F7620F731F841F951FA01D0895DE
:0A2F3000992788270895F894FFCF31
:102F3A00820369646C65000202E0024B03010F011F
:102F4A0000006D61696E0016002002021C0405076C
:102F5A00090B000D0E000000BD07B707C907C3071C
:102F6A00C707C107BB07B507330003FF00FF80FF90
:102F7A0000FF00FF02FF00FF00FF00FF00FF00FF4D
:102F8A0000286E756C6C29000A00000064000000BD
:102F9A00E803000010270000A086010040420F004D
:102FAA008096980000E1F50500CA9A3B0A0D204573
:102FBA0058542068616C207465737420737461724C
:102FCA007465642E2E2E000A0D20696E64657820C1
:102FDA003D2025642C2049535220436F756E746539
:102FEA0072203D2025640003000000141103000034
:102FFA00001411030000001411030000001411034F
:0C300A000000001411030000001411006D
:00000001FF
