:1000000082C00000A1C000009FC000009DC0000091
:100010009BC0000099C0000097C0000095C0000080
:1000200093C0000091C000008FC000008DC0000090
:100030008BC0000089C0000087C0000085C00000A0
:1000400083C000000C9436087FC000007DC0000013
:100050007BC0000079C0000077C0000075C00000C0
:1000600073C000000C946C0A0C94B10A6DC00000BF
:100070006BC0000069C0000067C0000065C00000E0
:100080000C94B4080C94EC080C9424090C947C088F
:100090005BC0000059C0000057C0000055C0000000
:1000A00053C0000051C000004FC000004DC0000010
:1000B0004BC0000049C0000047C0000045C0000020
:1000C00043C0000041C000003FC000003DC0000030
:1000D0003BC0000039C0000037C0000035C0000040
:1000E00033C0000045464765666700202B2D2E3043
:1000F00031323334353637383968006364696E6FAE
:1001000070737578580011241FBECFEFD1E2DEBFA7
:10011000CDBF00E00CBF12E0A0E0B2E0E2E7FEE1FC
:1001200000E00BBF02C007900D92A037B107D9F7CE
:1001300023E0A0E7B2E001C01D92AF35B207E1F7BE
:100140000E94F90A0C94370F5BCFFFCFDAD17BD036
:1001500040E86FE172E082EF92E0EAD2FC01909316
:10016000E7028093E60291E0958790930E037894DE
:1001700084E192E061C3EF92FF920F931F93CF93BC
:10018000DF93C091E802D091E902809184009091C0
:1001900085004C815D812091EE023091EF02BC011F
:1001A000621B730B6417750778F108EE12E0240FD9
:1001B000351F3093EF022093EE02E881F98113831B
:1001C0000283F093E902E093E802EE80FF801F8251
:1001D0001E82E85EF24059F188859985F7011995EC
:1001E000C091E802D091E90280918400909185004D
:1001F0004C815D812091EE023091EF02BC01621BC7
:10020000730B6417750798F6C85ED240A9F0240FE7
:10021000351F281B390B2230310558F0820F931FF0
:10022000DF91CF911F910F91FF90EF9000C4FCD30D
:10023000D3CF22E030E0F2CFDF91CF911F910F9129
:10024000FF90EF900895EBEDF2E088EE92E0968754
:100250008587908B87878FEF9FEF928B818B148A96
:10026000138A0895EF92FF920F931F93CF93DF931A
:100270007C01DC0119963C932E93189717965C939A
:100280004E9316972091840030918500623071055D
:1002900008F459C00091E8021091E902B2E0083E6A
:1002A0001B0709F45AC08091EE029091EF02281BBF
:1002B000390BEB01C20FD31FD801C217D307E0F1EE
:1002C00014962D913C911597C217D30748F43EC060
:1002D000C21BD30BD8010D911C91F80124813581EB
:1002E0002C173D07A8F3D7010D931C93D801129644
:1002F000ED91FC911397D7011396FC93EE9312970F
:10030000F182E082F801F382E2821596DC93CE93CB
:100310001497848195818C1B9D0B958384838FEF2B
:100320009FEF9093ED028093EC02DF91CF911F91AC
:100330000F91FF90EF90089514968D919C911597D1
:10034000C81BD90BC8CF62E070E0A4CF8C0F9D1FF3
:100350006ED3F80124813581C3CF3093EF0220930F
:10036000EE02F092E902E092E802F092EB02E092F3
:10037000EA02F70111830083138302837583648388
:10038000CB01820F931FDF91CF911F910F91FF90AF
:10039000EF9041C3CF93DF93FC01A091E802B091AD
:1003A000E902A817B90709F1C281D381808191813F
:1003B00099838883A081B1811396DC93CE931297A1
:1003C0001782168262E0A83EB60761F014962D915E
:1003D0003C91159784819581820F931F15969C936C
:1003E0008E931497DF91CF910895ED91FC91119721
:1003F000F093E902E093E80288EE92E0938382832F
:1004000017961C921E921697E817F90729F1248176
:10041000358114968D919C911597280F391F35833E
:10042000248380918400909185004091EE02509148
:10043000EF02BC01641B750B6217730798F6261B4D
:10044000370B2230310528F0820F931FDF91CF91B7
:10045000EEC222E030E0F8CFDF91CF91E5C2CF933A
:10046000DF93DC011D968C911D97843099F170F516
:10047000882349F1833031F45096ED91FC915197E6
:10048000118210828FEF9FEF51969C938E9350971D
:100490001D961C921D9714962C911497EBEDF2E08B
:1004A0000190F081E02D94819217D0F71196FC9382
:1004B000EE93C281D3811396DC93CE931297B983C6
:1004C000A883B383A283DF91CF910895853089F00B
:1004D0008730C1F61296ED91FC9113978D919C9106
:1004E000119791838083CD91DC911197FB83EA83EF
:1004F000C9CF5096ED91FC91519784818F5F848391
:10050000E9CFEBEDF2E0F183E083F383E283148241
:10051000F087E783F287E1870895CF93DF93DC01CB
:100520001D961C921D9714962C911497EBEDF2E0FA
:100530000190F081E02D94819217D0F71196FC93F1
:10054000EE93C281D3811396DC93CE931297B98335
:10055000A883B383A283CD01DF91CF910895CF9378
:10056000DF93EBEDF2E063857485DB011D968C93E0
:1005700080819181EC01A881B981B183A083139618
:10058000FC93EE9312979487838721E02D8706D200
:10059000DF91CF9108951F93CF93DF93CDB7DEB74F
:1005A0002A970FB6F894DEBF0FBECDBF182F6F3F4E
:1005B0008FEF780711F12091E6023091E7024FE2C8
:1005C00052E0CE0101964EDE812FC9DF8F819885E2
:1005D000892B19F0CE010196DDDEE091E602F09163
:1005E000E702808991892A960FB6F894DEBF0FBE84
:1005F000CDBFDF91CF911F910895812FB0DFEDCF57
:10060000CF93DF93DC01C091E602D091E7025196CF
:100610007C936E93509714962C9114978C8182172B
:10062000D8F01D961C921D97EBEDF2E00190F08141
:10063000E02D94819217D0F71196FC93EE93C2812E
:10064000D3811396DC93CE931297B983A883B38397
:10065000A283DF91CF9108951D86EBEDF2E001902A
:10066000F081E02D94819817D0F7CD01F983E883CC
:10067000A281B381BB83AA83CD93DC93D383C2834E
:100680009093E7028093E60221E0FC012587BE01FA
:1006900085D1DF91CF910895A091DB02B091DC026A
:1006A000E091E602F091E70281E014962C919481AA
:1006B000921708F080E00895CF93DF93A091E602AF
:1006C000B091E7024091DB025091DC02EA01E8813F
:1006D000F981F093DC02E093DB028BED92E09383EF
:1006E00082835093E7024093E60281E08D871D9656
:1006F0001C921D9714962C91149703C00190F081C1
:10070000E02D94812917D0F31196FC93EE9382810A
:10071000938113969C938E931297EC01B983A883CF
:10072000B383A283BD01CA0139D1DF91CF9108956E
:10073000CF93DF93FC01448382E085871686438F45
:10074000128E118E108E81E0878774876387ABEDE0
:10075000B2E0B087A7831996CD91DC911A97D28722
:10076000C187F887EF831A96FC93EE931997CF0110
:100770004296938B828B0296958B848B978B868B7C
:10078000CF01DF91CF910895CF93DF93DC011496D1
:100790004D915C911597FA017C97EA01E297D68317
:1007A000C58317962C9117972A8B18962C9118971A
:1007B000298B19962C911997288B1A962C911A9798
:1007C0002F871B8A2DEF34E03C8B2D8B16962C91B6
:1007D00016978D919C91248332E035871686238F5E
:1007E000128E118E108E21E0278794878387CBEDA0
:1007F000D2E0D087C78389859A8592878187DC017B
:100800001896FC93EE931797FA87E987EA012A97DF
:10081000D983C883DA0118970B2E11960C92119781
:10082000AC930A2E1B2E13961C920E921124129733
:10083000CF01DF91CF910895CF93DF93F894A4DF98
:10084000EC0160E070E0DCDE7894CE01DF91CF91C6
:1008500008950F931F93CF93DF93C091E602D09139
:10086000E702998B888B8E010E5E1F4F8A899B89C8
:100870000817190759F0FC01208131813B8B2A8B25
:100880004CDE8A899B8980179107A9F78F85811192
:100890000CC0E985FA858F81988590878783AF8121
:1008A000B8851A96FC93EE9319978FE0DF91CF915C
:1008B0001F910F9154CEF894CCCFCF93DF93611555
:1008C000710599F0E091E602F091E702918380834F
:1008D000EC01AA81BB81B383A283ED93FC93FB83DC
:1008E000EA8384E0DF91CF9156CE8FEF9FEFDF91C7
:1008F000CF910895CF93DF93FC0180819181E81718
:10090000F90771F0EC01A881B981B183A083139636
:10091000FC93EE931297798B688BDF91CF91FDCD8D
:10092000DF91CF910895FC01908D692B608F8585B3
:100930008A3059F08B3009F0089580896823861336
:10094000FBCF118A108ACF01E8CD80896823C9F7CF
:100950000895EF92FF921F93CF93DF937C01162FA0
:10096000FC01C081D1818C179D0791F08D81812B75
:100970008D83112319F09E81892321F06C818A8156
:100980009B81D1DF0990D881C02DEC16FD0671F74F
:10099000DF91CF911F91FF90EF9008952F923F929A
:1009A0004F925F926F927F928F929F92AF92BF927F
:1009B000CF92DF92EF92FF920F931F93CF93DF932B
:1009C000FB010DB605820EB60682FC0105800DBE48
:1009D00006800EBEDF91CF911F910F91FF90EF9097
:1009E000DF90CF90BF90AF909F908F907F906F904F
:1009F0005F904F903F902F9008957894C201F1013D
:100A0000099559CFD8D289E592E0D6D226D269D2BB
:100A1000EAD500C05AC3909389008093880082E091
:100A200086BB80936F00089510926F000895909395
:100A300089008093880008950F931F93FC01918390
:100A4000808393838283158214827783668375877C
:100A5000648773876287640F751F71876087378724
:100A60002687118B008B1F910F910895FC01A285A1
:100A7000B38584859585A817B907E1F084819581B0
:100A8000019695838483CD010196938782876C9329
:100A900022853385808591852817390720F0868146
:100AA000978193878287CF0160E070E023DF80E049
:100AB00090E0089584819581892B01F38FEF9FEF5A
:100AC00008950F931F93CF93DF93EC018B01F8945C
:100AD00005C0B801CE01F1DE97FD27C08C819D8154
:100AE000892BB9F38C819D8101979D838C83EC8543
:100AF000FD85CF0101969D878C87108128853985DA
:100B00008217930720F08E819F819D878C87EE85C9
:100B1000FF85309711F0CE0119957894812F90E0E0
:100B2000DF91CF911F910F9108957894DF91CF912C
:100B30001F910F9108952F923F924F925F926F9263
:100B40007F928F929F92AF92BF92CF92DF92EF925D
:100B5000FF920F931F93CF93DF93EC017B018A01E8
:100B60003901AE84BF84F8942090840030908500D1
:100B7000220E331EC12CD12C290181E0481A5108C4
:100B80008C819D81892B81F18C819D8101979D8331
:100B90008C834701FFEF8F1A9F0AEC85FD85CF01FB
:100BA00001969D878C878081F70180832C853D8508
:100BB000888599852817390720F08E819F819D8728
:100BC0008C87A114B10419F0CE01F5011995789420
:100BD000FFEFCF1ADF0A01501109D9F0F894740120
:100BE0008C819D81892B81F6EEEF4E16EFEF5E062C
:100BF00020F58091840090918500B101681B790BEC
:100C00006616770628F0CE0158DE892B09F4B8CF96
:100C10007894C601DF91CF911F910F91FF90EF90D3
:100C2000DF90CF90BF90AF909F908F907F906F900C
:100C30005F904F903F902F900895B301CE013DDE1D
:100C4000E4CF0F931F93FC0191838083938382836E
:100C50005583448377836683758764877387628748
:100C6000460F571F5187408737872687118B008B88
:100C70001F910F910895FF920F931F93CF93DF93CE
:100C8000EC01F62E8A01F89405C0B801CE0115DEFC
:100C900097FD2AC08C819D81892BB9F38C819D8120
:100CA00001979D838C83EA85FB85CF0101969B8705
:100CB0008A87F0822A853B85888599852817390798
:100CC00020F08E819F819B878A87EE85FF853097F4
:100CD00011F0CE011995789480E090E0DF91CF91EA
:100CE0001F910F91FF9008957894DF91CF911F91FC
:100CF0000F91FF900895CF93FC01A485B58582855F
:100D000093858A179B07E1F08481958101969583ED
:100D10008483CD01019695878487CC912085318588
:100D20008217930740F4CF0160E070E0E3DD8C2F81
:100D300090E0CF9108958681978195878487F3CF3E
:100D400084819581892B01F38FEF9FEFF2CF2F9252
:100D50003F924F925F926F927F928F929F92AF924B
:100D6000BF92CF92DF92EF92FF920F931F93CF9398
:100D7000DF93EC017B018A013901AE84BF84F894D2
:100D80002090840030908500220E331EC12CD12C7F
:100D9000290181E0481A51088C819D81892B81F1BC
:100DA0008C819D8101979D838C83EA85FB85CF0192
:100DB00001969B878A874701BFEF8B1A9B0AD70151
:100DC0008C9180832A853B858885998528173907EA
:100DD00020F08E819F819B878A87A114B10419F02E
:100DE000CE01F50119957894FFEFCF1ADF0A015073
:100DF0001109D9F0F89474018C819D81892B81F6B9
:100E0000AEEF4A16AFEF5A0620F58091840090911C
:100E10008500B101681B790B6616770628F0CE01B4
:100E20004CDD892B09F4B8CF7894C601DF91CF91BE
:100E30001F910F91FF90EF90DF90CF90BF90AF90F8
:100E40009F908F907F906F905F904F903F902F90EA
:100E50000895B301CE0131DDE4CF2EC2FC0181E063
:100E6000808312821182158216820895CF93DF93B8
:100E7000EC01F8947A836983FB01828193819C83DE
:100E80008B83CE0125D21D8282E088837894DF9106
:100E9000CF910895F89421E030E0062E01C0220F92
:100EA0000A94EAF7FC013581232B258340D27894FC
:100EB0000895059640CE2FEF3FEF05963CCE47961E
:100EC00046CF2FEF3FEF479642CF0596FACD6FEF13
:100ED0007FEF0596F6CD4796CECE4FEF5FEF479664
:100EE000CACE7AC3EF92FF920F931F93CF93DF93F3
:100EF000EC019B017A01FC0185E392E081939193DF
:100F0000FB83EA8381E08C83BE01675D7F4F8E01A6
:100F100040E150E0CE0105968FDDBE01675C7F4F5A
:100F2000970140E150E0CE0147968BDEDF91CF91F3
:100F30001F910F91FF90EF9008951F93CF93DF9330
:100F4000EC01162F89859A85892B51F0612FCE01EE
:100F500005968CDD97FD0EC0DF91CF911F9108950E
:100F600064E0CE010296F5DC612FCE0105967EDDB0
:100F700097FFF2CF60E0CE010296DF91CF911F91F3
:100F8000E8CC0F931F93CF93DF938C014796B3DE8A
:100F9000EC0197FD06C0CE01DF91CF911F910F911B
:100FA000089568E0C8010296D4DCCE01DF91CF91AC
:100FB0001F910F9108950895FC01808182B981816C
:100FC00081B9828185B9838184B9848188B9858119
:100FD00087B986818BB987818AB980858EB98185E9
:100FE0008DB9828581BB838580BB848584BB8585E3
:100FF00083BB868580930201878580930101808968
:10100000809305018189809304018289809308017E
:10101000838980930701848980930B01858980935C
:101020000A010895FC014230C9F098F04530B1F052
:10103000463021F48181682B618308954330E9F7BC
:101040008181962F9095892381838281682B628389
:101050000895442319F0413099F3089581816095F2
:101060008623818382816823628308951F920F9271
:101070000FB60F9211240BB60F922F933F934F93FD
:101080005F936F937F938F939F93AF93BF93EF93F0
:10109000FF9381E080930E036ED810920E03FCDA6A
:1010A00081110ADBFF91EF91BF91AF919F918F91D9
:1010B0007F916F915F914F913F912F910F900BBE58
:1010C0000F900FBE0F901F90189510928000E1E8CE
:1010D000F0E088E0808310928200109289001092E4
:1010E0008800109285001092840082E086BB1092E6
:1010F0006F0085E0808308951F920F920FB60F92C4
:1011000011240BB60F922F933F934F935F936F93DE
:101110007F938F939F93AF93BF93EF93FF9381E060
:1011200080930E03E0911003F09111030480F58188
:10113000E02D8FE093E0199510920E03ADDA811146
:10114000BBDAFF91EF91BF91AF919F918F917F910A
:101150006F915F914F913F912F910F900BBE0F9028
:101160000FBE0F901F9018951F920F920FB60F92FF
:1011700011240BB60F922F933F934F935F936F936E
:101180007F938F939F93AF93BF93EF93FF9381E0F0
:1011900080930E03E0911003F09111030780F08516
:1011A000E02D8FE093E0199510920E0375DA81110E
:1011B00083DAFF91EF91BF91AF919F918F917F91D2
:1011C0006F915F914F913F912F910F900BBE0F90B8
:1011D0000FBE0F901F9018951F920F920FB60F928F
:1011E00011240BB60F922F933F934F935F936F93FE
:1011F0007F938F939F93AF93BF93EF93FF9381E080
:1012000080930E03E0911003F09111030284F385A3
:10121000E02D8FE093E0199510920E033DDA8111D5
:101220004BDAFF91EF91BF91AF919F918F917F9199
:101230006F915F914F913F912F910F900BBE0F9047
:101240000FBE0F901F9018951F920F920FB60F921E
:1012500011240BB60F922F933F934F935F936F938D
:101260007F938F939F93AF93BF93EF93FF9381E00F
:1012700080930E03E0911003F09111030584F6852D
:10128000E02D8FE093E0199510920E0305DA81119D
:1012900013DAFF91EF91BF91AF919F918F917F9161
:1012A0006F915F914F913F912F910F900BBE0F90D7
:1012B0000FBE0F901F9018958FE093E0CFDD83E075
:1012C0008093150382E0809390001092910008951E
:1012D000DC012C91213009F0089521E030E0B3E0E9
:1012E0008F309B0709F144E1429FF001439FF00DCD
:1012F0001124EB5BFD4F0280F381E02D2081216002
:10130000208320812260208320812B7F2083DC01A9
:101310001196ED91FC91129784819581892BE1F2D0
:1013200081E080937100089520E030E0DCCFAF923F
:10133000BF92CF92DF92EF92FF920F931F93CF93C2
:10134000DF93FC01411584E0580710F04FEF53E0A4
:10135000262F30E0A181B2818901000F111FC80141
:10136000820F931FA80FB91F16967C91C1E0D0E0A1
:10137000A3E0EF30FA0709F4A6C084E18C9FD00106
:101380008D9FB00D1124AB5BBD4FED90FC90D7014C
:101390008C91A62FAA0F97E09A1BA1E0B0E06D01F7
:1013A00001C0CC0C9A95EAF793E0A92EB12CA21AB1
:1013B000B30AAA0C01C0AA0FAA94EAF7BA2EBC2855
:1013C0009B2D90959823D7019C93713009F472C09E
:1013D000723009F473C0613009F45BC0623009F403
:1013E00047C084E18C9FD0018D9FB00D1124AB5B71
:1013F000BD4F14968D919C91159716966D917C9189
:101400001797DC015C93DB014C9384E18C9FD00146
:101410008D9FB00D1124AB5BBD4F50960D90BC91CC
:10142000A02D8C91B9016F5F7F4F41E050E001C06A
:10143000440F6A95EAF7842B8C930180F281E02DAA
:10144000200F311FE20FF31F87819085892B29F030
:1014500080917100482B40937100DF91CF911F91D3
:101460000F91FF90EF90DF90CF90BF90AF900895D5
:1014700084E18C9FD0018D9FB00D1124AB5BBD4FDB
:101480001C968D919C911D971E966D917C911F9736
:10149000B8CF84E18C9FD0018D9FB00D1124AB5B40
:1014A000BD4F18968D919C9119971A966D917C91CC
:1014B0001B97A7CF8C91C82ACC928DCFD7018C9146
:1014C0008B298C9388CFC0E0D0E057CFE1ECF0E0DF
:1014D00080818062808308951F920F920FB60F92D1
:1014E00011240BB60F922F933F934F935F936F93FB
:1014F0007F938F939F93AF93BF93EF93FF9381E07D
:1015000080930E038091C000982F9C71E9F4609144
:10151000C60086E193E011DD10920E03BDD8811163
:10152000CBD8FF91EF91BF91AF919F918F917F9118
:101530006F915F914F913F912F910F900BBE0F9044
:101540000FBE0F901F90189583FD09C060E082FDCB
:10155000606284FD606488E193E0FBD9D8CF60E8E5
:10156000F6CF1F920F920FB60F9211240BB60F9267
:101570002F933F934F935F936F937F938F939F939B
:10158000AF93BF93EF93FF9381E080930E0386E1C7
:1015900093E0F7DC97FD1AC08093C60010920E030B
:1015A0007BD8811189D8FF91EF91BF91AF919F9125
:1015B0008F917F916F915F914F913F912F910F90FC
:1015C0000BBE0F900FBE0F901F9018958091C10019
:1015D0008F7D8093C100E2CF46E65AE060E070E084
:1015E00086E193E07FCC1092690010926A001DBAE8
:1015F000089508DA46E068E08CE290E013DD46E00A
:1016000060E18CE290E00EDD46E060E28CE290E08A
:1016100009DD60E072E08FE093E028DC4FEF51E0FD
:1016200060E08FE093E036DC4FEF50E061E08FE068
:1016300093E030DC4FEF52E062E08FE093E02ADC91
:101640000E94A600FFCF6F927F928F929F92AF92DF
:10165000BF92CF92DF92EF92FF920F931F93CF939F
:10166000DF93CDB7DEB72B970FB6F894DEBF0FBE72
:10167000CDBF6C017B013A01FC0117821682838188
:1016800081FFF9C0CE0101964C01F601B380F7014C
:10169000B3FC0591B3FE01917F01002309F4E7C07B
:1016A000053249F4B3FC0591B3FE01917F01053287
:1016B00011F010E017C0B601802F90E022D3530143
:1016C0003501E3CF002309F4D2C0602F70E08BEE28
:1016D00090E0CED2892B49F0F701B3FC0591B3FE1F
:1016E00001917F0117FFEECF04C0033239F00C36B1
:1016F00019F0011105C0BBC01068EECF10E1ECCFAE
:10170000602F70E084EE90E0B3D2892B41F053015A
:10171000F4E0AF0EB11CB6018FE390E010C00336C9
:1017200031F0033771F0033501F511600AC0530140
:1017300082E0A80EB11CB601F30180819181E1D253
:10174000BFCF5301F2E0AF0EB11CF3016080718096
:10175000F30110FD859110FF81913F01882309F469
:10176000AFCFB60190E0CDD2F3CF043611F00936F9
:1017700021F5530117FF09C0F4E0AF0EB11CF301CE
:1017800060817181828193810AC0F2E0AF0EB11C49
:10179000F30160817181072E000C880B990B1F7E6D
:1017A00097FF08C090958095709561957F4F8F4FFA
:1017B0009F4F10642AE030E030C0003791F040F4D1
:1017C0000835A1F00F3609F052C028E030E011C012
:1017D000053719F0083731F04AC01F7E2AE030E0A3
:1017E00008C01061146220E130E003C0146020E101
:1017F00032E0530117FF09C0F4E0AF0EB11CF30152
:10180000608171818281938108C0F2E0AF0EB11CCA
:10181000F3016081718180E090E0A401C7D2082FBC
:10182000081916FF04C0B6018DE290E06AD214FFD9
:1018300013C0FE01E00FF11D8081803369F0B60115
:1018400080E390E05ED212FF07C01072812F90E01B
:10185000B601885A9F4F55D20150F401E00FF11D97
:101860008081B60190E04DD20111F6CF29CFF6016B
:101870008681978102C08FEF9FEF2B960FB6F89469
:10188000DEBF0FBECDBFDF91CF911F910F91FF90B3
:10189000EF90DF90CF90BF90AF909F908F907F9010
:1018A0006F90089520FD09C0FC0123FD05C022FFB3
:1018B00002C07383628351834083089544FD17C03F
:1018C00046FD17C0AB01BC01DA01FB01AA0FBB1F2B
:1018D000EE1FFF1F1094D1F74A0F5B1F6E1F7F1F73
:1018E000CB01BA01660F771F881F991F09C033E02B
:1018F00001C034E0660F771F881F991F3150D1F760
:10190000620F711D811D911D08950F931F93CF9339
:10191000DF938C01C801B7D1EC0197FD06C0A0D1BF
:10192000892BC1F7B801CE0128D2CE01DF91CF912A
:101930001F910F9108958F929F92AF92BF92EF9255
:10194000FF920F931F93CF93DF938C01D62F7A01D1
:10195000B22E99D19C0133272B32310531F02D3233
:10196000310559F48B2D8068B82ED15011F480E0E8
:1019700061C0C80188D197FDFACFCB2DCD7F2B2D2B
:101980002073F9F48033E9F4AA24AA94AD0E09F483
:101990003EC0C80178D197FD3AC09C012F7D332706
:1019A0002835310541F4C264D25089F1C8016BD1A8
:1019B00097FF07C02CC0B6FE02C0C26001C0C26162
:1019C000DA2D812C912C540120ED280F283078F04D
:1019D000C4FF03C0B801D1D117C02A3040F0C6FF00
:1019E000F9CF2F7D3FEE320F3630A0F727504C2F26
:1019F000C501B40163DF4B015C01C260D15051F0FD
:101A0000C80141D197FFE0CFC1FD04C0B0CF812C08
:101A1000912C5401C7FF08C0B094A0949094809476
:101A2000811C911CA11CB11C2C2FB501A401C70164
:101A300039DF81E0DF91CF911F910F91FF90EF90FF
:101A4000BF90AF909F908F9008955F926F927F921A
:101A50008F929F92AF92BF92CF92DF92EF92FF92BE
:101A60000F931F93CF93DF936C01EB015A01FC019D
:101A700017821682512CF601F380FE01F3FC85914A
:101A8000F3FE8191182FEF01882309F4D4C090E070
:101A9000E7D0892B19F0C60138DFEDCF153241F4BC
:101AA000FE01F3FC1591F3FE1191EF01153271F473
:101AB000C601E9D097FDBDC0412F50E09C013327FE
:101AC00024173507C1F2B60158D1B5C01A3239F41E
:101AD000F3FC1591F3FE1191EF0101E001C000E06C
:101AE000E12C20ED210F2A3078F402606E2D70E099
:101AF00080E090E040E2E2DEE62EFE01F3FC15918C
:101B0000F3FE1191EF01EDCF01FF03C0E11003C01F
:101B100092C0EE24EA94183619F01C3651F010C029
:101B2000FE01F3FC1591F3FE1191EF01183641F41B
:101B300008600460FE01F3FC1591F3FE1191EF01C2
:101B4000112309F478C0612F70E08BEF90E090D002
:101B5000892B09F470C000FD07C0F50180809180D9
:101B6000C50102965C0102C0812C912C1E3649F4FD
:101B7000F6014681578160E070E0202FC40192DEBB
:101B80007ACF1336A1F401FD02C0EE24E394C6011E
:101B90007AD097FD4EC08114910429F0F40180831E
:101BA000C40101964C01EA94E110F1CF3EC0C60198
:101BB000ACDE97FD3EC01F3649F128F4143621F102
:101BC000193639F125C0133771F01537E9F020C007
:101BD0008114910429F0F4016082C40101964C0142
:101BE000EA94EE2059F0C6014ED03C0197FD06C0A4
:101BF00037D0892B69F3B601C301BFD0811491049A
:101C0000A1F0F401108211C0006203C0006101C0A4
:101C10000064202FA4016E2DC6018DDE811105C048
:101C2000F6018381807329F406C000FD24CF53940C
:101C300022CF552019F0852D90E002C08FEF9FEF45
:101C4000DF91CF911F910F91FF90EF90DF90CF9098
:101C5000BF90AF909F908F907F906F905F9008950E
:101C6000911102C1803219F089508550D0F7089542
:101C7000FC010590061621F00020D9F7C001089557
:101C80003197CF010895CF93DF93EC012B8120FF93
:101C900033C026FF0AC02F7B2B838E819F81019644
:101CA0009F838E838A8190E029C022FF0FC0E88144
:101CB000F9818081082E000C990B009719F420629D
:101CC0002B831AC03196F983E8830EC0EA85FB8521
:101CD000199597FF09C02B81019611F080E201C090
:101CE00080E1822B8B8308C02E813F812F5F3F4F85
:101CF0003F832E83992702C08FEF9FEFDF91CF9113
:101D000008950F931F93CF93DF93FB01238121FD50
:101D100003C08FEF9FEF2CC022FF16C04681578172
:101D2000248135814217530744F4A081B1819D017C
:101D30002F5F3F4F318320838C93268137812F5F24
:101D40003F4F3783268314C08B01EC01FB010084D5
:101D5000F185E02D1995892BE1F6D80116968D9124
:101D60009C911797019617969C938E931697CE0188
:101D7000DF91CF911F910F910895FB01238120FFE7
:101D800012C026FD10C08F3F3FEF930761F08283A2
:101D90002F7D2064238326813781215031093783A9
:101DA0002683992708958FEF9FEF0895FA01AA27B8
:101DB000283051F1203181F1E8946F936E7F6E5F8E
:101DC0007F4F8F4F9F4FAF4FB1E03ED0B4E03CD03C
:101DD000670F781F891F9A1FA11D680F791F8A1F1F
:101DE000911DA11D6A0F711D811D911DA11D20D086
:101DF00009F468943F912AE0269F11243019305D40
:101E00003193DEF6CF010895462F4770405D419330
:101E1000B3E00FD0C9F7F6CF462F4F70405D4A337D
:101E200018F0495D31FD4052419302D0A9F7EACF45
:101E3000B4E0A6959795879577956795BA95C9F774
:101E400000976105710508959B01AC010A2E069467
:101E50005795479537952795BA95C9F7620F731F20
:101E6000841F951FA01D0895992788270895F89429
:021E7000FFCFA2
:101E7200FF03FF03000001000001000001000069F0
:101E8200646C65000F027002DB0201A50000006DA8
:101E920061696E0016002002021C040507090B008E
:101EA2000D0E00000061075B076D0767076B076592
:101EB200075F07590790009100990098009B009ACC
:101EC200009D009C0038007100FF00FF80FF00FFB2
:101ED20000FF02FF00FF00FF00FF00FF00FF000005
:00000001FF
